:040000008A11FD2F35
:100D3E00831203139F149F1C0800A22E8316031305
:100D4E000714871407158715071608008316031353
:100D5E000710871007118711071608008312031357
:100D6E00071AB52EF930F0000000F00BBB2EBF2E87
:100D7E00000083120313071E0800B52E83120313FF
:100D8E00071EC52EF930F0000000F00BCB2ECF2E33
:100D9E00000083120313071A0800C52E83160313CF
:100DAE000515093091000930831203139F0010308E
:100DBE00831603139F0087120730831203139900C3
:100DCE000800F1008A11C5268A118A11B5268A11EA
:100DDE0071088312031387008A11AD268A118A11B6
:100DEE00C5268A118A11B5268A118312031387012B
:100DFE008A11A52608008A11A5268A118A11C526F0
:100E0E008A118A11B5268A118A11C5268A11831272
:100E1E0003130708F4007408F5000F30F40074088B
:100E2E00F5058A11B5268A1175088A1144277508A9
:100E3E0008008A119F268A11831203131E08F200DE
:100E4E00F3017208F5007308F600831603131E08EB
:100E5E00F20006300310F20CFF3E031D312F720814
:100E6E00F300F4017308F5070318F60A7408F60781
:100E7E007608F1007508F0000800F1000130F2006C
:100E8E000030F3007308803AFF0080307F02031DAC
:100E9E00522F1030720203180800831203138712A8
:100EAE002130F000F00B592F8312031387162130D7
:100EBE00F000F00B602F8312031387122130F00025
:100ECE00F00B672F710872050319712F831203132C
:100EDE008716742F831203138712F930F000000067
:100EEE00F00B762F7A2F0000831203138712213016
:100EFE00F000F00B802F8312031387162130F000C1
:100F0E00F00B872F8312031387122130F000F00BA2
:100F1E008E2F01300310F20DF30DFF3E031D912FA6
:100F2E00492F8A11D5268A118A11A5268A11831274
:100F3E00031387120A308A1144278A11E32F8A116C
:100F4E00D5268A11DD2F8A1120278A117108831266
:100F5E000313A5007008A40024080F39F7007708C2
:100F6E00A1002508F8002408F7000430FF00780DD2
:100F7E00F80CF70CFF0BBE2F77080F39F900790824
:100F8E00A20025080F39F7007708A30023088A115D
:100F9E00E8268A118312031322088A11E8268A1181
:100FAE008312031321088A11E8268A110E30E02FCE
:100FBE000F308A11E8268A118312031387168A11BD
:100FCE0002278A11F700770883120313A0008712F5
:100FDE00831203132008003A0319A62F013A0319AE
:100FEE00A92F033A0319AA2FDF2FE32F83018A11AA
:020FFE00982F2A
:02400E00F7FFBA
:00000001FF
