:040000008A11FD2F35
:100D4400831203139F149F1C0800A52E83160313FC
:100D5400071487140715871507160800831603134D
:100D64000710871007118711071608008312031351
:100D7400071AB82EF930F0000000F00BBE2EC22E78
:100D8400000083120313071E0800B82E83120313F6
:100D9400071EC82EF930F0000000F00BCE2ED22E24
:100DA400000083120313071A0800C82E83160313C6
:100DB4000515093091000930831203139F00103088
:100DC400831603139F0087120730831203139900BD
:100DD4000800F1008A11C8268A118A11B8268A11DE
:100DE40071088312031387008A11B0268A118A11AD
:100DF400C8268A118A11B8268A118312031387011F
:100E04008A11A82608008A11A8268A118A11C826E0
:100E14008A118A11B8268A118A11C8268A11831266
:100E240003130708F4007408F5000F30F400740885
:100E3400F5058A11B8268A1175088A11472775089D
:100E440008008A11A2268A11831203131E08F200D5
:100E5400F3017208F5007308F600831603131E08E5
:100E6400F20006300310F20CFF3E031D342F72080B
:100E7400F300F4017308F5070318F60A7408F6077B
:100E84007608F1007508F0000800F1000130F20066
:100E94000030F3007308803AFF0080307F02031DA6
:100EA400552F10307202031808008312031387129F
:100EB4002130F000F00B5C2F8312031387162130CE
:100EC400F000F00B632F8312031387122130F0001C
:100ED400F00B6A2F710872050319742F8312031320
:100EE4008716772F831203138712F930F00000005E
:100EF400F00B792F7D2F000083120313871221300A
:100F0400F000F00B832F8312031387162130F000B7
:100F1400F00B8A2F8312031387122130F000F00B99
:100F2400912F01300310F20DF30DFF3E031D942F9A
:100F34004C2F8A11D8268A118A11A8268A110730C3
:100F44008A1147278A11A12F8A11D8268A11DD2FE9
:100F54008A1123278A11710883120313A5007008CC
:100F6400A40024080F39F7007708A1002508F80029
:100F74002408F7000430FF00780DF80CF70CFF0B81
:100F8400BE2F77080F39F9007908A20025080F3918
:100F9400F7007708A30023088A11EB268A1183122D
:100FA400031322088A11EB268A11831203132108E2
:100FB4008A11EB268A110E30E02F0F308A11EB26AE
:100FC4008A118312031387168A1105278A11F700E1
:100FD400770883120313A0008712831203132008D7
:100FE400003A0319A62F013A0319A92F033A03194A
:0C0FF400AA2FDF2FE32F83018A119B2F0F
:02400E00FFFFB2
:00000001FF
